{"abi":[{"type":"constructor","inputs":[],"stateMutability":"nonpayable"},{"type":"receive","stateMutability":"payable"},{"type":"function","name":"addQuiz","inputs":[{"name":"q","type":"tuple","internalType":"struct Quiz.Quiz_item","components":[{"name":"id","type":"uint256","internalType":"uint256"},{"name":"question","type":"string","internalType":"string"},{"name":"answer","type":"string","internalType":"string"},{"name":"min_bet","type":"uint256","internalType":"uint256"},{"name":"max_bet","type":"uint256","internalType":"uint256"}]}],"outputs":[],"stateMutability":"nonpayable"},{"type":"function","name":"betToPlay","inputs":[{"name":"quizId","type":"uint256","internalType":"uint256"}],"outputs":[],"stateMutability":"payable"},{"type":"function","name":"bets","inputs":[{"name":"","type":"uint256","internalType":"uint256"},{"name":"","type":"address","internalType":"address"}],"outputs":[{"name":"","type":"uint256","internalType":"uint256"}],"stateMutability":"view"},{"type":"function","name":"claim","inputs":[],"outputs":[],"stateMutability":"nonpayable"},{"type":"function","name":"claimable","inputs":[{"name":"","type":"address","internalType":"address"}],"outputs":[{"name":"","type":"uint256","internalType":"uint256"}],"stateMutability":"view"},{"type":"function","name":"fixAnser","inputs":[{"name":"_fixNum","type":"uint256","internalType":"uint256"},{"name":"_newAnswer","type":"string","internalType":"string"}],"outputs":[],"stateMutability":"nonpayable"},{"type":"function","name":"getAnswer","inputs":[{"name":"quizId","type":"uint256","internalType":"uint256"}],"outputs":[{"name":"","type":"string","internalType":"string"}],"stateMutability":"view"},{"type":"function","name":"getQuiz","inputs":[{"name":"quizId","type":"uint256","internalType":"uint256"}],"outputs":[{"name":"","type":"tuple","internalType":"struct Quiz.Quiz_item","components":[{"name":"id","type":"uint256","internalType":"uint256"},{"name":"question","type":"string","internalType":"string"},{"name":"answer","type":"string","internalType":"string"},{"name":"min_bet","type":"uint256","internalType":"uint256"},{"name":"max_bet","type":"uint256","internalType":"uint256"}]}],"stateMutability":"nonpayable"},{"type":"function","name":"getQuizNum","inputs":[],"outputs":[{"name":"","type":"uint256","internalType":"uint256"}],"stateMutability":"view"},{"type":"function","name":"quizList","inputs":[{"name":"","type":"uint256","internalType":"uint256"}],"outputs":[{"name":"id","type":"uint256","internalType":"uint256"},{"name":"question","type":"string","internalType":"string"},{"name":"answer","type":"string","internalType":"string"},{"name":"min_bet","type":"uint256","internalType":"uint256"},{"name":"max_bet","type":"uint256","internalType":"uint256"}],"stateMutability":"view"},{"type":"function","name":"quizOwner","inputs":[{"name":"","type":"uint256","internalType":"uint256"}],"outputs":[{"name":"","type":"address","internalType":"address"}],"stateMutability":"view"},{"type":"function","name":"solveQuiz","inputs":[{"name":"quizId","type":"uint256","internalType":"uint256"},{"name":"ans","type":"string","internalType":"string"}],"outputs":[{"name":"","type":"bool","internalType":"bool"}],"stateMutability":"nonpayable"},{"type":"function","name":"vault_balance","inputs":[],"outputs":[{"name":"","type":"uint256","internalType":"uint256"}],"stateMutability":"view"}],"bytecode":{"object":"0x608060405234801561000f575f5ffd5b5061003f6040518060a001604052805f815260200160608152602001606081526020015f81526020015f81525090565b60018082526040805180820182526005815264312b313d3f60d81b6020808301919091528085019190915281518083018352928352601960f91b90830152820152670de0b6b3a76400006060820152671bc16d674ec8000060808201526100a5816100ab565b50610312565b333b6100b5575f5ffd5b600380546001810182555f91909152815160059091027fc2575a0e9e593c00f959f8c92f12db2869c3395a3b0502d05e2516446f71f85b810191825560208301518392917fc2575a0e9e593c00f959f8c92f12db2869c3395a3b0502d05e2516446f71f85c01906101269082610233565b506040820151600282019061013b9082610233565b50606082015181600301556080820151816004015550503360025f600160038054905061016891906102ed565b81526020019081526020015f205f6101000a8154816001600160a01b0302191690836001600160a01b0316021790555050565b634e487b7160e01b5f52604160045260245ffd5b600181811c908216806101c357607f821691505b6020821081036101e157634e487b7160e01b5f52602260045260245ffd5b50919050565b601f82111561022e57805f5260205f20601f840160051c8101602085101561020c5750805b601f840160051c820191505b8181101561022b575f8155600101610218565b50505b505050565b81516001600160401b0381111561024c5761024c61019b565b6102608161025a84546101af565b846101e7565b6020601f821160018114610292575f831561027b5750848201515b5f19600385901b1c1916600184901b17845561022b565b5f84815260208120601f198516915b828110156102c157878501518255602094850194600190920191016102a1565b50848210156102de57868401515f19600387901b60f8161c191681555b50505050600190811b01905550565b8181038181111561030c57634e487b7160e01b5f52601160045260245ffd5b92915050565b6111c58061031f5f395ff3fe6080604052600436106100c2575f3560e01c80637487361f1161007c578063b5ab58dc11610057578063b5ab58dc1461023f578063c0da916f1461026b578063f101b3f11461027f578063f644b3bb1461029e575f5ffd5b80637487361f146101cf5780638f7b0961146101fe578063a3f7e09614610213575f5ffd5b80631d298145146100cd578063400ae0f9146100ee578063402914f51461013f5780634e71d92d1461017857806354c63f821461018c5780636b2b45881461019f575f5ffd5b366100c957005b5f5ffd5b3480156100d8575f5ffd5b506100ec6100e7366004610d22565b6102bd565b005b3480156100f9575f5ffd5b50610122610108366004610d66565b60026020525f90815260409020546001600160a01b031681565b6040516001600160a01b0390911681526020015b60405180910390f35b34801561014a575f5ffd5b5061016a610159366004610d98565b60016020525f908152604090205481565b604051908152602001610136565b348015610183575f5ffd5b506100ec610317565b6100ec61019a366004610d66565b610393565b3480156101aa575f5ffd5b506101be6101b9366004610d66565b610613565b604051610136959493929190610de6565b3480156101da575f5ffd5b506101ee6101e9366004610d22565b61075f565b6040519015158152602001610136565b348015610209575f5ffd5b5061016a60045481565b34801561021e575f5ffd5b5061023261022d366004610d66565b610881565b6040516101369190610e25565b34801561024a575f5ffd5b5061025e610259366004610d66565b610a84565b6040516101369190610e88565b348015610276575f5ffd5b5060035461016a565b34801561028a575f5ffd5b506100ec610299366004610e9a565b610b40565b3480156102a9575f5ffd5b5061016a6102b8366004610f51565b610c30565b5f828152600260205260409020546001600160a01b031633146102de575f5ffd5b5f600383815481106102f2576102f2610f7b565b905f5260205f2090600502019050818160020190816103119190611013565b50505050565b335f908152600160205260409020548061032f575f5ffd5b335f818152600160205260408082208290555190919083908381818185875af1925050503d805f811461037d576040519150601f19603f3d011682016040523d82523d5f602084013e610382565b606091505b505090508061038f575f5ffd5b5050565b3460036103a16001846110e2565b815481106103b1576103b1610f7b565b905f5260205f20906005020160030154111580156103fb57503460036103d86001846110e2565b815481106103e8576103e8610f7b565b905f5260205f2090600502016004015410155b156105b25734600361040e6001846110e2565b8154811061041e5761041e610f7b565b905f5260205f2090600502016004015f82825461043b91906110f5565b925050819055503460045f82825461045391906110f5565b90915550505f80546001908101825590805260039061047290836110e2565b8154811061048257610482610f7b565b905f5260205f209060050201600201805461049c90610f8f565b90505f036104f7576040805180820190915260028152614f4b60f01b602082015260036104ca6001846110e2565b815481106104da576104da610f7b565b905f5260205f20906005020160020190816104f59190611013565b505b5f6105036001836110e2565b8154811061051357610513610f7b565b5f918252602080832033845290910190526040812054900361056557345f61053c6001846110e2565b8154811061054c5761054c610f7b565b5f91825260208083203384529091019052604090205550565b345f6105726001846110e2565b8154811061058257610582610f7b565b5f918252602080832033845290910190526040812080549091906105a79084906110f5565b909155506106109050565b3460036105c06001846110e2565b815481106105d0576105d0610f7b565b905f5260205f2090600502016003015411806100c957503460036105f56001846110e2565b8154811061060557610605610f7b565b905f5260205f205f5ffd5b50565b60038181548110610622575f80fd5b5f918252602090912060059091020180546001820180549193509061064690610f8f565b80601f016020809104026020016040519081016040528092919081815260200182805461067290610f8f565b80156106bd5780601f10610694576101008083540402835291602001916106bd565b820191905f5260205f20905b8154815290600101906020018083116106a057829003601f168201915b5050505050908060020180546106d290610f8f565b80601f01602080910402602001604051908101604052809291908181526020018280546106fe90610f8f565b80156107495780601f1061072057610100808354040283529160200191610749565b820191905f5260205f20905b81548152906001019060200180831161072c57829003601f168201915b5050505050908060030154908060040154905085565b5f5f826040516020016107729190611108565b60405160208183030381529060405280519060200120600360018661079791906110e2565b815481106107a7576107a7610f7b565b905f5260205f2090600502016002016040516020016107c6919061111e565b604051602081830303815290604052805190602001201490505f6001856107ed91906110e2565b815481106107fd576107fd610f7b565b5f91825260208083203384529091019052604081205460048054919290916108269084906110f5565b909155505f9050806108396001876110e2565b8154811061084957610849610f7b565b5f918252602080832033845290910190526040902055801561087857600454335f908152600160205260409020555b90505b92915050565b6108b06040518060a001604052805f815260200160608152602001606081526020015f81526020015f81525090565b81600114806108bf5750816002145b1561090c5760408051602081019091525f815260036108df6001856110e2565b815481106108ef576108ef610f7b565b905f5260205f209060050201600201908161090a9190611013565b505b60036109196001846110e2565b8154811061092957610929610f7b565b905f5260205f2090600502016040518060a00160405290815f820154815260200160018201805461095990610f8f565b80601f016020809104026020016040519081016040528092919081815260200182805461098590610f8f565b80156109d05780601f106109a7576101008083540402835291602001916109d0565b820191905f5260205f20905b8154815290600101906020018083116109b357829003601f168201915b505050505081526020016002820180546109e990610f8f565b80601f0160208091040260200160405190810160405280929190818152602001828054610a1590610f8f565b8015610a605780601f10610a3757610100808354040283529160200191610a60565b820191905f5260205f20905b815481529060010190602001808311610a4357829003601f168201915b50505050508152602001600382015481526020016004820154815250509050919050565b60606003610a936001846110e2565b81548110610aa357610aa3610f7b565b905f5260205f2090600502016002018054610abd90610f8f565b80601f0160208091040260200160405190810160405280929190818152602001828054610ae990610f8f565b8015610b345780601f10610b0b57610100808354040283529160200191610b34565b820191905f5260205f20905b815481529060010190602001808311610b1757829003601f168201915b50505050509050919050565b333b610b4a575f5ffd5b600380546001810182555f91909152815160059091027fc2575a0e9e593c00f959f8c92f12db2869c3395a3b0502d05e2516446f71f85b810191825560208301518392917fc2575a0e9e593c00f959f8c92f12db2869c3395a3b0502d05e2516446f71f85c0190610bbb9082611013565b5060408201516002820190610bd09082611013565b50606082015181600301556080820151816004015550503360025f6001600380549050610bfd91906110e2565b81526020019081526020015f205f6101000a8154816001600160a01b0302191690836001600160a01b0316021790555050565b5f8281548110610c3e575f80fd5b905f5260205f2001602052805f5260405f205f91509150505481565b634e487b7160e01b5f52604160045260245ffd5b60405160a0810167ffffffffffffffff81118282101715610c9157610c91610c5a565b60405290565b5f82601f830112610ca6575f5ffd5b813567ffffffffffffffff811115610cc057610cc0610c5a565b604051601f8201601f19908116603f0116810167ffffffffffffffff81118282101715610cef57610cef610c5a565b604052818152838201602001851015610d06575f5ffd5b816020850160208301375f918101602001919091529392505050565b5f5f60408385031215610d33575f5ffd5b82359150602083013567ffffffffffffffff811115610d50575f5ffd5b610d5c85828601610c97565b9150509250929050565b5f60208284031215610d76575f5ffd5b5035919050565b80356001600160a01b0381168114610d93575f5ffd5b919050565b5f60208284031215610da8575f5ffd5b610db182610d7d565b9392505050565b5f81518084528060208401602086015e5f602082860101526020601f19601f83011685010191505092915050565b85815260a060208201525f610dfe60a0830187610db8565b8281036040840152610e108187610db8565b60608401959095525050608001529392505050565b60208152815160208201525f602083015160a06040840152610e4a60c0840182610db8565b90506040840151601f19848303016060850152610e678282610db8565b91505060608401516080840152608084015160a08401528091505092915050565b602081525f610db16020830184610db8565b5f60208284031215610eaa575f5ffd5b813567ffffffffffffffff811115610ec0575f5ffd5b820160a08185031215610ed1575f5ffd5b610ed9610c6e565b81358152602082013567ffffffffffffffff811115610ef6575f5ffd5b610f0286828501610c97565b602083015250604082013567ffffffffffffffff811115610f21575f5ffd5b610f2d86828501610c97565b60408301525060608281013590820152608091820135918101919091529392505050565b5f5f60408385031215610f62575f5ffd5b82359150610f7260208401610d7d565b90509250929050565b634e487b7160e01b5f52603260045260245ffd5b600181811c90821680610fa357607f821691505b602082108103610fc157634e487b7160e01b5f52602260045260245ffd5b50919050565b601f82111561100e57805f5260205f20601f840160051c81016020851015610fec5750805b601f840160051c820191505b8181101561100b575f8155600101610ff8565b50505b505050565b815167ffffffffffffffff81111561102d5761102d610c5a565b6110418161103b8454610f8f565b84610fc7565b6020601f821160018114611073575f831561105c5750848201515b5f19600385901b1c1916600184901b17845561100b565b5f84815260208120601f198516915b828110156110a25787850151825560209485019460019092019101611082565b50848210156110bf57868401515f19600387901b60f8161c191681555b50505050600190811b01905550565b634e487b7160e01b5f52601160045260245ffd5b8181038181111561087b5761087b6110ce565b8082018082111561087b5761087b6110ce565b5f82518060208501845e5f920191825250919050565b5f5f835461112b81610f8f565b600182168015611142576001811461115757611184565b60ff1983168652811515820286019350611184565b865f5260205f205f5b8381101561117c57815488820152600190910190602001611160565b505081860193505b50919594505050505056fea2646970667358221220439e308b92946e1477b417b76caf9f7fb418acd769328427abc66ad0f573eabe64736f6c634300081c0033","linkReferences":{}},"methodIdentifiers":{"addQuiz((uint256,string,string,uint256,uint256))":"f101b3f1","betToPlay(uint256)":"54c63f82","bets(uint256,address)":"f644b3bb","claim()":"4e71d92d","claimable(address)":"402914f5","fixAnser(uint256,string)":"1d298145","getAnswer(uint256)":"b5ab58dc","getQuiz(uint256)":"a3f7e096","getQuizNum()":"c0da916f","quizList(uint256)":"6b2b4588","quizOwner(uint256)":"400ae0f9","solveQuiz(uint256,string)":"7487361f","vault_balance()":"8f7b0961"},"id":18}