{"abi":[{"type":"constructor","inputs":[],"stateMutability":"nonpayable"},{"type":"receive","stateMutability":"payable"},{"type":"function","name":"addQuiz","inputs":[{"name":"q","type":"tuple","internalType":"struct Quiz.Quiz_item","components":[{"name":"id","type":"uint256","internalType":"uint256"},{"name":"question","type":"string","internalType":"string"},{"name":"answer","type":"string","internalType":"string"},{"name":"min_bet","type":"uint256","internalType":"uint256"},{"name":"max_bet","type":"uint256","internalType":"uint256"}]}],"outputs":[],"stateMutability":"nonpayable"},{"type":"function","name":"betToPlay","inputs":[{"name":"quizId","type":"uint256","internalType":"uint256"}],"outputs":[],"stateMutability":"payable"},{"type":"function","name":"bets","inputs":[{"name":"","type":"uint256","internalType":"uint256"},{"name":"","type":"address","internalType":"address"}],"outputs":[{"name":"","type":"uint256","internalType":"uint256"}],"stateMutability":"view"},{"type":"function","name":"claim","inputs":[],"outputs":[],"stateMutability":"nonpayable"},{"type":"function","name":"claimable","inputs":[{"name":"","type":"address","internalType":"address"}],"outputs":[{"name":"","type":"uint256","internalType":"uint256"}],"stateMutability":"view"},{"type":"function","name":"fixAnser","inputs":[{"name":"_fixNum","type":"uint256","internalType":"uint256"},{"name":"_newAnswer","type":"string","internalType":"string"}],"outputs":[],"stateMutability":"nonpayable"},{"type":"function","name":"getAnswer","inputs":[{"name":"quizId","type":"uint256","internalType":"uint256"}],"outputs":[{"name":"","type":"string","internalType":"string"}],"stateMutability":"view"},{"type":"function","name":"getQuiz","inputs":[{"name":"quizId","type":"uint256","internalType":"uint256"}],"outputs":[{"name":"","type":"tuple","internalType":"struct Quiz.Quiz_item","components":[{"name":"id","type":"uint256","internalType":"uint256"},{"name":"question","type":"string","internalType":"string"},{"name":"answer","type":"string","internalType":"string"},{"name":"min_bet","type":"uint256","internalType":"uint256"},{"name":"max_bet","type":"uint256","internalType":"uint256"}]}],"stateMutability":"nonpayable"},{"type":"function","name":"getQuizNum","inputs":[],"outputs":[{"name":"","type":"uint256","internalType":"uint256"}],"stateMutability":"view"},{"type":"function","name":"owner","inputs":[],"outputs":[{"name":"","type":"address","internalType":"address"}],"stateMutability":"view"},{"type":"function","name":"quizList","inputs":[{"name":"","type":"uint256","internalType":"uint256"}],"outputs":[{"name":"id","type":"uint256","internalType":"uint256"},{"name":"question","type":"string","internalType":"string"},{"name":"answer","type":"string","internalType":"string"},{"name":"min_bet","type":"uint256","internalType":"uint256"},{"name":"max_bet","type":"uint256","internalType":"uint256"}],"stateMutability":"view"},{"type":"function","name":"setOwner","inputs":[{"name":"_newOwner","type":"address","internalType":"address"}],"outputs":[],"stateMutability":"nonpayable"},{"type":"function","name":"solveQuiz","inputs":[{"name":"quizId","type":"uint256","internalType":"uint256"},{"name":"ans","type":"string","internalType":"string"}],"outputs":[{"name":"","type":"bool","internalType":"bool"}],"stateMutability":"nonpayable"},{"type":"function","name":"vault_balance","inputs":[],"outputs":[{"name":"","type":"uint256","internalType":"uint256"}],"stateMutability":"view"}],"bytecode":{"object":"0x608060405234801561000f575f5ffd5b5061003f6040518060a001604052805f815260200160608152602001606081526020015f81526020015f81525090565b60018082526040805180820182526005815264312b313d3f60d81b6020808301919091528085019190915281518083018352928352601960f91b90830152820152670de0b6b3a76400006060820152671bc16d674ec8000060808201526100a5816100ab565b506102a4565b333b6100b5575f5ffd5b5f8054600181018255908052815160059091027f290decd9548b62a8d60345a988386fc84ba6bc95484008f6362f93160ef3e563810191825560208301518392917f290decd9548b62a8d60345a988386fc84ba6bc95484008f6362f93160ef3e564019061012390826101ea565b506040820151600282019061013890826101ea565b506060820151816003015560808201518160040155505050565b634e487b7160e01b5f52604160045260245ffd5b600181811c9082168061017a57607f821691505b60208210810361019857634e487b7160e01b5f52602260045260245ffd5b50919050565b601f8211156101e557805f5260205f20601f840160051c810160208510156101c35750805b601f840160051c820191505b818110156101e2575f81556001016101cf565b50505b505050565b81516001600160401b0381111561020357610203610152565b610217816102118454610166565b8461019e565b6020601f821160018114610249575f83156102325750848201515b5f19600385901b1c1916600184901b1784556101e2565b5f84815260208120601f198516915b828110156102785787850151825560209485019460019092019101610258565b508482101561029557868401515f19600387901b60f8161c191681555b50505050600190811b01905550565b6111d0806102b15f395ff3fe6080604052600436106100dc575f3560e01c80638da5cb5b1161007c578063b5ab58dc11610057578063b5ab58dc14610263578063c0da916f1461028f578063f101b3f1146102a2578063f644b3bb146102c1575f5ffd5b80638da5cb5b146101eb5780638f7b096114610222578063a3f7e09614610237575f5ffd5b80634e71d92d116100b75780634e71d92d1461016557806354c63f82146101795780636b2b45881461018c5780637487361f146101bc575f5ffd5b806313af4035146100e75780631d29814514610108578063402914f514610127575f5ffd5b366100e357005b5f5ffd5b3480156100f2575f5ffd5b50610106610101366004610c80565b6102e0565b005b348015610113575f5ffd5b50610106610122366004610d68565b61034e565b348015610132575f5ffd5b50610152610141366004610c80565b60026020525f908152604090205481565b6040519081526020015b60405180910390f35b348015610170575f5ffd5b50610106610386565b610106610187366004610dac565b610402565b348015610197575f5ffd5b506101ab6101a6366004610dac565b610679565b60405161015c959493929190610df1565b3480156101c7575f5ffd5b506101db6101d6366004610d68565b6107c4565b604051901515815260200161015c565b3480156101f6575f5ffd5b5060035461020a906001600160a01b031681565b6040516001600160a01b03909116815260200161015c565b34801561022d575f5ffd5b5061015260045481565b348015610242575f5ffd5b50610256610251366004610dac565b6108d7565b60405161015c9190610e30565b34801561026e575f5ffd5b5061028261027d366004610dac565b610ad8565b60405161015c9190610e93565b34801561029a575f5ffd5b505f54610152565b3480156102ad575f5ffd5b506101066102bc366004610ea5565b610b93565b3480156102cc575f5ffd5b506101526102db366004610f5c565b610c3a565b6003546001600160a01b0316331461032c5760405162461bcd60e51b815260206004820152600b60248201526a2727902822a926a6a4a7a760a91b604482015260640160405180910390fd5b600380546001600160a01b0319166001600160a01b0392909216919091179055565b5f5f838154811061036157610361610f86565b905f5260205f209060050201905081816002019081610380919061101e565b50505050565b335f908152600260205260409020548061039e575f5ffd5b335f818152600260205260408082208290555190919083908381818185875af1925050503d805f81146103ec576040519150601f19603f3d011682016040523d82523d5f602084013e6103f1565b606091505b50509050806103fe575f5ffd5b5050565b345f61040f6001846110ed565b8154811061041f5761041f610f86565b905f5260205f20906005020160030154111580156104685750345f6104456001846110ed565b8154811061045557610455610f86565b905f5260205f2090600502016004015410155b1561061a57345f61047a6001846110ed565b8154811061048a5761048a610f86565b905f5260205f2090600502016004015f8282546104a79190611100565b925050819055503460045f8282546104bf9190611100565b909155505060018054810181555f818152906104db90836110ed565b815481106104eb576104eb610f86565b905f5260205f209060050201600201805461050590610f9a565b90505f0361055f576040805180820190915260028152614f4b60f01b60208201525f6105326001846110ed565b8154811061054257610542610f86565b905f5260205f209060050201600201908161055d919061101e565b505b600161056b81836110ed565b8154811061057b5761057b610f86565b5f91825260208083203384529091019052604081205490036105cd573460016105a481846110ed565b815481106105b4576105b4610f86565b5f91825260208083203384529091019052604090205550565b3460016105da81846110ed565b815481106105ea576105ea610f86565b5f9182526020808320338452909101905260408120805490919061060f908490611100565b909155506106769050565b345f6106276001846110ed565b8154811061063757610637610f86565b905f5260205f2090600502016003015411806100e35750345f61065b6001846110ed565b8154811061066b5761066b610f86565b905f5260205f205f5ffd5b50565b5f8181548110610687575f80fd5b5f91825260209091206005909102018054600182018054919350906106ab90610f9a565b80601f01602080910402602001604051908101604052809291908181526020018280546106d790610f9a565b80156107225780601f106106f957610100808354040283529160200191610722565b820191905f5260205f20905b81548152906001019060200180831161070557829003601f168201915b50505050509080600201805461073790610f9a565b80601f016020809104026020016040519081016040528092919081815260200182805461076390610f9a565b80156107ae5780601f10610785576101008083540402835291602001916107ae565b820191905f5260205f20905b81548152906001019060200180831161079157829003601f168201915b5050505050908060030154908060040154905085565b5f60016107d181856110ed565b815481106107e1576107e1610f86565b5f918252602080832033845290910190526040812054600480549192909161080a908490611100565b909155505f9050600161081d81866110ed565b8154811061082d5761082d610f86565b5f91825260208083203384529091018152604080832093909355600454600282529183902091909155905161086491849101611113565b604051602081830303815290604052805190602001205f60018561088891906110ed565b8154811061089857610898610f86565b905f5260205f2090600502016002016040516020016108b79190611129565b604051602081830303815290604052805190602001201490505b92915050565b6109066040518060a001604052805f815260200160608152602001606081526020015f81526020015f81525090565b81600114806109155750816002145b156109615760408051602081019091525f8082526109346001856110ed565b8154811061094457610944610f86565b905f5260205f209060050201600201908161095f919061101e565b505b5f61096d6001846110ed565b8154811061097d5761097d610f86565b905f5260205f2090600502016040518060a00160405290815f82015481526020016001820180546109ad90610f9a565b80601f01602080910402602001604051908101604052809291908181526020018280546109d990610f9a565b8015610a245780601f106109fb57610100808354040283529160200191610a24565b820191905f5260205f20905b815481529060010190602001808311610a0757829003601f168201915b50505050508152602001600282018054610a3d90610f9a565b80601f0160208091040260200160405190810160405280929190818152602001828054610a6990610f9a565b8015610ab45780601f10610a8b57610100808354040283529160200191610ab4565b820191905f5260205f20905b815481529060010190602001808311610a9757829003601f168201915b50505050508152602001600382015481526020016004820154815250509050919050565b60605f610ae66001846110ed565b81548110610af657610af6610f86565b905f5260205f2090600502016002018054610b1090610f9a565b80601f0160208091040260200160405190810160405280929190818152602001828054610b3c90610f9a565b8015610b875780601f10610b5e57610100808354040283529160200191610b87565b820191905f5260205f20905b815481529060010190602001808311610b6a57829003601f168201915b50505050509050919050565b333b610b9d575f5ffd5b5f8054600181018255908052815160059091027f290decd9548b62a8d60345a988386fc84ba6bc95484008f6362f93160ef3e563810191825560208301518392917f290decd9548b62a8d60345a988386fc84ba6bc95484008f6362f93160ef3e5640190610c0b908261101e565b5060408201516002820190610c20908261101e565b506060820151816003015560808201518160040155505050565b60018281548110610c49575f80fd5b905f5260205f2001602052805f5260405f205f91509150505481565b80356001600160a01b0381168114610c7b575f5ffd5b919050565b5f60208284031215610c90575f5ffd5b610c9982610c65565b9392505050565b634e487b7160e01b5f52604160045260245ffd5b60405160a0810167ffffffffffffffff81118282101715610cd757610cd7610ca0565b60405290565b5f82601f830112610cec575f5ffd5b813567ffffffffffffffff811115610d0657610d06610ca0565b604051601f8201601f19908116603f0116810167ffffffffffffffff81118282101715610d3557610d35610ca0565b604052818152838201602001851015610d4c575f5ffd5b816020850160208301375f918101602001919091529392505050565b5f5f60408385031215610d79575f5ffd5b82359150602083013567ffffffffffffffff811115610d96575f5ffd5b610da285828601610cdd565b9150509250929050565b5f60208284031215610dbc575f5ffd5b5035919050565b5f81518084528060208401602086015e5f602082860101526020601f19601f83011685010191505092915050565b85815260a060208201525f610e0960a0830187610dc3565b8281036040840152610e1b8187610dc3565b60608401959095525050608001529392505050565b60208152815160208201525f602083015160a06040840152610e5560c0840182610dc3565b90506040840151601f19848303016060850152610e728282610dc3565b91505060608401516080840152608084015160a08401528091505092915050565b602081525f610c996020830184610dc3565b5f60208284031215610eb5575f5ffd5b813567ffffffffffffffff811115610ecb575f5ffd5b820160a08185031215610edc575f5ffd5b610ee4610cb4565b81358152602082013567ffffffffffffffff811115610f01575f5ffd5b610f0d86828501610cdd565b602083015250604082013567ffffffffffffffff811115610f2c575f5ffd5b610f3886828501610cdd565b60408301525060608281013590820152608091820135918101919091529392505050565b5f5f60408385031215610f6d575f5ffd5b82359150610f7d60208401610c65565b90509250929050565b634e487b7160e01b5f52603260045260245ffd5b600181811c90821680610fae57607f821691505b602082108103610fcc57634e487b7160e01b5f52602260045260245ffd5b50919050565b601f82111561101957805f5260205f20601f840160051c81016020851015610ff75750805b601f840160051c820191505b81811015611016575f8155600101611003565b50505b505050565b815167ffffffffffffffff81111561103857611038610ca0565b61104c816110468454610f9a565b84610fd2565b6020601f82116001811461107e575f83156110675750848201515b5f19600385901b1c1916600184901b178455611016565b5f84815260208120601f198516915b828110156110ad578785015182556020948501946001909201910161108d565b50848210156110ca57868401515f19600387901b60f8161c191681555b50505050600190811b01905550565b634e487b7160e01b5f52601160045260245ffd5b818103818111156108d1576108d16110d9565b808201808211156108d1576108d16110d9565b5f82518060208501845e5f920191825250919050565b5f5f835461113681610f9a565b60018216801561114d57600181146111625761118f565b60ff198316865281151582028601935061118f565b865f5260205f205f5b838110156111875781548882015260019091019060200161116b565b505081860193505b50919594505050505056fea26469706673582212207f3b797d20c31db80c9a0dd2e508c474d4e3d0d33a8deb741cae376248a1d4cf64736f6c634300081c0033","linkReferences":{}},"methodIdentifiers":{"addQuiz((uint256,string,string,uint256,uint256))":"f101b3f1","betToPlay(uint256)":"54c63f82","bets(uint256,address)":"f644b3bb","claim()":"4e71d92d","claimable(address)":"402914f5","fixAnser(uint256,string)":"1d298145","getAnswer(uint256)":"b5ab58dc","getQuiz(uint256)":"a3f7e096","getQuizNum()":"c0da916f","owner()":"8da5cb5b","quizList(uint256)":"6b2b4588","setOwner(address)":"13af4035","solveQuiz(uint256,string)":"7487361f","vault_balance()":"8f7b0961"},"id":18}