{"abi":[{"type":"constructor","inputs":[],"stateMutability":"nonpayable"},{"type":"receive","stateMutability":"payable"},{"type":"function","name":"addQuiz","inputs":[{"name":"q","type":"tuple","internalType":"struct myQuiz.Quiz_item","components":[{"name":"id","type":"uint256","internalType":"uint256"},{"name":"question","type":"string","internalType":"string"},{"name":"answer","type":"string","internalType":"string"},{"name":"min_bet","type":"uint256","internalType":"uint256"},{"name":"max_bet","type":"uint256","internalType":"uint256"}]}],"outputs":[],"stateMutability":"nonpayable"},{"type":"function","name":"betToPlay","inputs":[{"name":"quizId","type":"uint256","internalType":"uint256"}],"outputs":[],"stateMutability":"payable"},{"type":"function","name":"bets","inputs":[{"name":"","type":"uint256","internalType":"uint256"},{"name":"","type":"address","internalType":"address"}],"outputs":[{"name":"","type":"uint256","internalType":"uint256"}],"stateMutability":"view"},{"type":"function","name":"claim","inputs":[],"outputs":[],"stateMutability":"nonpayable"},{"type":"function","name":"claimable","inputs":[{"name":"","type":"address","internalType":"address"}],"outputs":[{"name":"","type":"uint256","internalType":"uint256"}],"stateMutability":"view"},{"type":"function","name":"fixAnser","inputs":[{"name":"_fixNum","type":"uint256","internalType":"uint256"},{"name":"_newAnswer","type":"string","internalType":"string"}],"outputs":[],"stateMutability":"nonpayable"},{"type":"function","name":"getAnswer","inputs":[{"name":"quizId","type":"uint256","internalType":"uint256"}],"outputs":[{"name":"","type":"string","internalType":"string"}],"stateMutability":"view"},{"type":"function","name":"getQuiz","inputs":[{"name":"quizId","type":"uint256","internalType":"uint256"}],"outputs":[{"name":"","type":"tuple","internalType":"struct myQuiz.Quiz_item","components":[{"name":"id","type":"uint256","internalType":"uint256"},{"name":"question","type":"string","internalType":"string"},{"name":"answer","type":"string","internalType":"string"},{"name":"min_bet","type":"uint256","internalType":"uint256"},{"name":"max_bet","type":"uint256","internalType":"uint256"}]}],"stateMutability":"nonpayable"},{"type":"function","name":"getQuizNum","inputs":[],"outputs":[{"name":"","type":"uint256","internalType":"uint256"}],"stateMutability":"view"},{"type":"function","name":"owner","inputs":[],"outputs":[{"name":"","type":"address","internalType":"address"}],"stateMutability":"view"},{"type":"function","name":"quizList","inputs":[{"name":"","type":"uint256","internalType":"uint256"}],"outputs":[{"name":"id","type":"uint256","internalType":"uint256"},{"name":"question","type":"string","internalType":"string"},{"name":"answer","type":"string","internalType":"string"},{"name":"min_bet","type":"uint256","internalType":"uint256"},{"name":"max_bet","type":"uint256","internalType":"uint256"}],"stateMutability":"view"},{"type":"function","name":"setOwner","inputs":[{"name":"_newOwner","type":"address","internalType":"address"}],"outputs":[],"stateMutability":"nonpayable"},{"type":"function","name":"solveQuiz","inputs":[{"name":"quizId","type":"uint256","internalType":"uint256"},{"name":"ans","type":"string","internalType":"string"}],"outputs":[{"name":"","type":"bool","internalType":"bool"}],"stateMutability":"nonpayable"},{"type":"function","name":"vault_balance","inputs":[],"outputs":[{"name":"","type":"uint256","internalType":"uint256"}],"stateMutability":"view"}],"bytecode":{"object":"0x608060405234801561000f575f5ffd5b5061003f6040518060a001604052805f815260200160608152602001606081526020015f81526020015f81525090565b60018082526040805180820182526005815264312b313d3f60d81b6020808301919091528085019190915281518083018352928352601960f91b90830152820152670de0b6b3a76400006060820152671bc16d674ec8000060808201526100a5816100ab565b506102a4565b333b6100b5575f5ffd5b5f8054600181018255908052815160059091027f290decd9548b62a8d60345a988386fc84ba6bc95484008f6362f93160ef3e563810191825560208301518392917f290decd9548b62a8d60345a988386fc84ba6bc95484008f6362f93160ef3e564019061012390826101ea565b506040820151600282019061013890826101ea565b506060820151816003015560808201518160040155505050565b634e487b7160e01b5f52604160045260245ffd5b600181811c9082168061017a57607f821691505b60208210810361019857634e487b7160e01b5f52602260045260245ffd5b50919050565b601f8211156101e557805f5260205f20601f840160051c810160208510156101c35750805b601f840160051c820191505b818110156101e2575f81556001016101cf565b50505b505050565b81516001600160401b0381111561020357610203610152565b610217816102118454610166565b8461019e565b6020601f821160018114610249575f83156102325750848201515b5f19600385901b1c1916600184901b1784556101e2565b5f84815260208120601f198516915b828110156102785787850151825560209485019460019092019101610258565b508482101561029557868401515f19600387901b60f8161c191681555b50505050600190811b01905550565b611229806102b15f395ff3fe6080604052600436106100dc575f3560e01c80638da5cb5b1161007c578063b5ab58dc11610057578063b5ab58dc14610263578063c0da916f1461028f578063f101b3f1146102a2578063f644b3bb146102c1575f5ffd5b80638da5cb5b146101eb5780638f7b096114610222578063a3f7e09614610237575f5ffd5b80634e71d92d116100b75780634e71d92d1461016557806354c63f82146101795780636b2b45881461018c5780637487361f146101bc575f5ffd5b806313af4035146100e75780631d29814514610108578063402914f514610127575f5ffd5b366100e357005b5f5ffd5b3480156100f2575f5ffd5b50610106610101366004610cd9565b6102e0565b005b348015610113575f5ffd5b50610106610122366004610dc1565b61034e565b348015610132575f5ffd5b50610152610141366004610cd9565b60026020525f908152604090205481565b6040519081526020015b60405180910390f35b348015610170575f5ffd5b50610106610386565b610106610187366004610e05565b610402565b348015610197575f5ffd5b506101ab6101a6366004610e05565b6106d2565b60405161015c959493929190610e4a565b3480156101c7575f5ffd5b506101db6101d6366004610dc1565b61081d565b604051901515815260200161015c565b3480156101f6575f5ffd5b5060035461020a906001600160a01b031681565b6040516001600160a01b03909116815260200161015c565b34801561022d575f5ffd5b5061015260045481565b348015610242575f5ffd5b50610256610251366004610e05565b610930565b60405161015c9190610e89565b34801561026e575f5ffd5b5061028261027d366004610e05565b610b31565b60405161015c9190610eec565b34801561029a575f5ffd5b505f54610152565b3480156102ad575f5ffd5b506101066102bc366004610efe565b610bec565b3480156102cc575f5ffd5b506101526102db366004610fb5565b610c93565b6003546001600160a01b0316331461032c5760405162461bcd60e51b815260206004820152600b60248201526a2727902822a926a6a4a7a760a91b604482015260640160405180910390fd5b600380546001600160a01b0319166001600160a01b0392909216919091179055565b5f5f838154811061036157610361610fdf565b905f5260205f2090600502019050818160020190816103809190611077565b50505050565b335f908152600260205260409020548061039e575f5ffd5b335f818152600260205260408082208290555190919083908381818185875af1925050503d805f81146103ec576040519150601f19603f3d011682016040523d82523d5f602084013e6103f1565b606091505b50509050806103fe575f5ffd5b5050565b345f61040f600184611146565b8154811061041f5761041f610fdf565b905f5260205f20906005020160030154111580156104685750345f610445600184611146565b8154811061045557610455610fdf565b905f5260205f2090600502016004015410155b1561067357345f61047a600184611146565b8154811061048a5761048a610fdf565b905f5260205f209060050201600301546104a49190611159565b50345f6104b2600184611146565b815481106104c2576104c2610fdf565b905f5260205f209060050201600401546104dc9190611159565b503460045f8282546104ee9190611159565b909155505060018054810181555f8181526040805182815260208101918290525190209161051c9084611146565b8154811061052c5761052c610fdf565b905f5260205f20906005020160020160405160200161054b919061116c565b60405160208183030381529060405280519060200120036105b8576040805180820190915260028152614f4b60f01b60208201525f61058b600184611146565b8154811061059b5761059b610fdf565b905f5260205f20906005020160020190816105b69190611077565b505b60016105c48183611146565b815481106105d4576105d4610fdf565b5f9182526020808320338452909101905260408120549003610626573460016105fd8184611146565b8154811061060d5761060d610fdf565b5f91825260208083203384529091019052604090205550565b3460016106338184611146565b8154811061064357610643610fdf565b5f91825260208083203384529091019052604081208054909190610668908490611159565b909155506106cf9050565b345f610680600184611146565b8154811061069057610690610fdf565b905f5260205f2090600502016003015411806100e35750345f6106b4600184611146565b815481106106c4576106c4610fdf565b905f5260205f205f5ffd5b50565b5f81815481106106e0575f80fd5b5f918252602090912060059091020180546001820180549193509061070490610ff3565b80601f016020809104026020016040519081016040528092919081815260200182805461073090610ff3565b801561077b5780601f106107525761010080835404028352916020019161077b565b820191905f5260205f20905b81548152906001019060200180831161075e57829003601f168201915b50505050509080600201805461079090610ff3565b80601f01602080910402602001604051908101604052809291908181526020018280546107bc90610ff3565b80156108075780601f106107de57610100808354040283529160200191610807565b820191905f5260205f20905b8154815290600101906020018083116107ea57829003601f168201915b5050505050908060030154908060040154905085565b5f600161082a8185611146565b8154811061083a5761083a610fdf565b5f9182526020808320338452909101905260408120546004805491929091610863908490611159565b909155505f905060016108768186611146565b8154811061088657610886610fdf565b5f9182526020808320338452909101815260408083209390935560045460028252918390209190915590516108bd918491016111dd565b604051602081830303815290604052805190602001205f6001856108e19190611146565b815481106108f1576108f1610fdf565b905f5260205f209060050201600201604051602001610910919061116c565b604051602081830303815290604052805190602001201490505b92915050565b61095f6040518060a001604052805f815260200160608152602001606081526020015f81526020015f81525090565b816001148061096e5750816002145b156109ba5760408051602081019091525f80825261098d600185611146565b8154811061099d5761099d610fdf565b905f5260205f20906005020160020190816109b89190611077565b505b5f6109c6600184611146565b815481106109d6576109d6610fdf565b905f5260205f2090600502016040518060a00160405290815f8201548152602001600182018054610a0690610ff3565b80601f0160208091040260200160405190810160405280929190818152602001828054610a3290610ff3565b8015610a7d5780601f10610a5457610100808354040283529160200191610a7d565b820191905f5260205f20905b815481529060010190602001808311610a6057829003601f168201915b50505050508152602001600282018054610a9690610ff3565b80601f0160208091040260200160405190810160405280929190818152602001828054610ac290610ff3565b8015610b0d5780601f10610ae457610100808354040283529160200191610b0d565b820191905f5260205f20905b815481529060010190602001808311610af057829003601f168201915b50505050508152602001600382015481526020016004820154815250509050919050565b60605f610b3f600184611146565b81548110610b4f57610b4f610fdf565b905f5260205f2090600502016002018054610b6990610ff3565b80601f0160208091040260200160405190810160405280929190818152602001828054610b9590610ff3565b8015610be05780601f10610bb757610100808354040283529160200191610be0565b820191905f5260205f20905b815481529060010190602001808311610bc357829003601f168201915b50505050509050919050565b333b610bf6575f5ffd5b5f8054600181018255908052815160059091027f290decd9548b62a8d60345a988386fc84ba6bc95484008f6362f93160ef3e563810191825560208301518392917f290decd9548b62a8d60345a988386fc84ba6bc95484008f6362f93160ef3e5640190610c649082611077565b5060408201516002820190610c799082611077565b506060820151816003015560808201518160040155505050565b60018281548110610ca2575f80fd5b905f5260205f2001602052805f5260405f205f91509150505481565b80356001600160a01b0381168114610cd4575f5ffd5b919050565b5f60208284031215610ce9575f5ffd5b610cf282610cbe565b9392505050565b634e487b7160e01b5f52604160045260245ffd5b60405160a0810167ffffffffffffffff81118282101715610d3057610d30610cf9565b60405290565b5f82601f830112610d45575f5ffd5b813567ffffffffffffffff811115610d5f57610d5f610cf9565b604051601f8201601f19908116603f0116810167ffffffffffffffff81118282101715610d8e57610d8e610cf9565b604052818152838201602001851015610da5575f5ffd5b816020850160208301375f918101602001919091529392505050565b5f5f60408385031215610dd2575f5ffd5b82359150602083013567ffffffffffffffff811115610def575f5ffd5b610dfb85828601610d36565b9150509250929050565b5f60208284031215610e15575f5ffd5b5035919050565b5f81518084528060208401602086015e5f602082860101526020601f19601f83011685010191505092915050565b85815260a060208201525f610e6260a0830187610e1c565b8281036040840152610e748187610e1c565b60608401959095525050608001529392505050565b60208152815160208201525f602083015160a06040840152610eae60c0840182610e1c565b90506040840151601f19848303016060850152610ecb8282610e1c565b91505060608401516080840152608084015160a08401528091505092915050565b602081525f610cf26020830184610e1c565b5f60208284031215610f0e575f5ffd5b813567ffffffffffffffff811115610f24575f5ffd5b820160a08185031215610f35575f5ffd5b610f3d610d0d565b81358152602082013567ffffffffffffffff811115610f5a575f5ffd5b610f6686828501610d36565b602083015250604082013567ffffffffffffffff811115610f85575f5ffd5b610f9186828501610d36565b60408301525060608281013590820152608091820135918101919091529392505050565b5f5f60408385031215610fc6575f5ffd5b82359150610fd660208401610cbe565b90509250929050565b634e487b7160e01b5f52603260045260245ffd5b600181811c9082168061100757607f821691505b60208210810361102557634e487b7160e01b5f52602260045260245ffd5b50919050565b601f82111561107257805f5260205f20601f840160051c810160208510156110505750805b601f840160051c820191505b8181101561106f575f815560010161105c565b50505b505050565b815167ffffffffffffffff81111561109157611091610cf9565b6110a58161109f8454610ff3565b8461102b565b6020601f8211600181146110d7575f83156110c05750848201515b5f19600385901b1c1916600184901b17845561106f565b5f84815260208120601f198516915b8281101561110657878501518255602094850194600190920191016110e6565b508482101561112357868401515f19600387901b60f8161c191681555b50505050600190811b01905550565b634e487b7160e01b5f52601160045260245ffd5b8181038181111561092a5761092a611132565b8082018082111561092a5761092a611132565b5f5f835461117981610ff3565b60018216801561119057600181146111a5576111d2565b60ff19831686528115158202860193506111d2565b865f5260205f205f5b838110156111ca578154888201526001909101906020016111ae565b505081860193505b509195945050505050565b5f82518060208501845e5f92019182525091905056fea2646970667358221220dbc763244df3728a7774b95cd6542beb0c20620728da69aff7ea8c723286760d64736f6c634300081c0033","linkReferences":{}},"methodIdentifiers":{"addQuiz((uint256,string,string,uint256,uint256))":"f101b3f1","betToPlay(uint256)":"54c63f82","bets(uint256,address)":"f644b3bb","claim()":"4e71d92d","claimable(address)":"402914f5","fixAnser(uint256,string)":"1d298145","getAnswer(uint256)":"b5ab58dc","getQuiz(uint256)":"a3f7e096","getQuizNum()":"c0da916f","owner()":"8da5cb5b","quizList(uint256)":"6b2b4588","setOwner(address)":"13af4035","solveQuiz(uint256,string)":"7487361f","vault_balance()":"8f7b0961"},"id":21}